:1000000000800010254F0000554F0000574F0000A2
:10001000594F00005B4F00005D4F000000000000E2
:100020000000000000000000000000005F4F000022
:10003000614F000000000000634F0000654F0000AA
:10004000674F0000674F0000674F0000674F0000D8
:10005000674F0000674F0000674F0000674F0000C8
:10006000674F0000674F0000674F0000674F0000B8
:10007000674F0000674F0000674F0000674F0000A8
:10008000674F0000674F0000674F0000674F000098
:10009000674F0000674F0000674F0000674F000088
:1000A000674F0000674F0000674F0000674F000078
:1000B000674F0000674F0000674F0000674F000068
:1000C000674F0000674F0000674F0000044B054872
:1000D0001B1A062B02D9044B03B11847704700BF07
:1000E0003B0A0010380A00100000000005490648CD
:1000F000091A891001EBD171491002D0034B03B1E9
:1001000018477047380A0010380A00100000000035
:1001100010B5064C237843B9FFF7D8FF044B13B151
:100120000448AFF300800123237010BD380A00108B
:1001300000000000E459010008B5084B1BB1084855
:100140000849AFF300800848036813B9BDE80840C8
:10015000CCE7064B002BF9D09847F7E700000000EA
:10016000E45901003C0A0010380A001000000000A9
:10017000134B002B08BF114B9D46A3F5803A00217D
:100180008B460F461148124A121A06F0AFFE0D4B6D
:10019000002B00D098470C4B002B00D09847002034
:1001A000002104000D000B4805F0C2FD06F09EFB87
:1001B0002000290004F087F805F0C6FD00000800C3
:1001C0000080001000000000B9420000380A001052
:1001D000281400105D610000704770477047704739
:1001E0000368184708B10B68036070477047000048
:1001F00038B50368044601330D4604D10548064965
:10020000242205F0E3FB63680DB1E26800E0226997
:10021000136038BDDC360100F436010001480121CD
:10022000FFF7E6BFAC0B001001480021FFF7E0BF6D
:10023000AC0B00102DE9FF47354B062218681B79DF
:1002400000908DF80430334B00211B880DF10A001B
:10025000ADF8083006F04AFE2F49304805F0E6FABE
:1002600002AA2F492D4805F0FEFA684607F0A0FCC7
:10027000044602A807F09CFC2044013006F002FD71
:100280000446694607F036FC02A9204607F034FB15
:1002900024492246214805F0C9FA2046224905F0A2
:1002A000B7FF074620B921491C4805F0BFFA2BE0EB
:1002B0001F4B1A481B881F49002B0BBF4FF0A00A89
:1002C0004FF0500A4FF03C094FF0780905F0AEFAB4
:1002D00000264FEA86080025174B39461B6853F85D
:1002E0000830585D013505F09BFF5545F4D10136C6
:1002F0004E45EED11149094805F098FA384605F007
:1003000075FD204606F0C6FC04B0BDE8F08700BFCE
:100310008A370100D436010033370100140B001076
:100320002C400100463701005037010052370100D0
:10033000A80B00107237010000C0072083370100AE
:1003400010B50446024B036001F092FA204610BD3E
:10035000E83D010038B504460D461822002106F09C
:10036000C5FD2046294605F0DEFA204638BD0000CE
:100370000F4B2DE9F0411B880024002B0CBF3C26BD
:1003800078264FEA86000CBF4FF0A0084FF05008C7
:1003900006F078FC074B1D46186040462F6806F0B3
:1003A00071FC47F824000134B442F6D1BDE8F08175
:1003B000A80B001000C007200C4B70B51B88002450
:1003C000002B14BF78263C26094D2B6853F82400D7
:1003D000013406F05FFCB442F6D1286806F05AFCFE
:1003E000BDE870400348044905F020BAA80B00108E
:1003F00000C00720140B00108F37010073B51048A0
:1004000004F0B2FF06460F4804F0AEFF05460E4862
:1004100004F0AAFF00300D4C18BF0120321C18BF99
:1004200001222B1C00900A49204618BF012305F029
:10043000FDF92046074902B0BDE8704005F0F6B965
:10044000480B0010540A00109C0A0010140B0010F6
:10045000A0370100B83B010010B50A480A4905F071
:10046000E5F90024094B074853F8242008490134D2
:1004700005F0DCF90A2CF5D1BDE81040014805492A
:1004800005F0D4B9140B0010D0370100F8000010AB
:100490004C370100EE37010007B5FFF7DDFF0549D6
:1004A0000DF10602044805F0DEF9BDF8060003B0C0
:1004B0005DF804FBFD370100140B00101D4B1A689A
:1004C00042F400421A601A6842F400321A601A6854
:1004D00042F400221A6003F55023D3F8C42042F4FA
:1004E0008062C3F8C420D3F8A82142F48012C3F874
:1004F000A821A3F54C231A6942F006021A611A6872
:1005000022F020021A601A6842F007021A601A6884
:1005100022F0C0021A605A6822F004025A605A6837
:1005200042F002025A60044A136843F04003136029
:10053000704700BF00C0024000C00920024AD369D2
:1005400043F04003D361704700C00920024A936919
:1005500043F040039361704700C00920044B98604A
:10056000DA685207FCD5024B9868C0B2704700BFEA
:100570000000034038B5FFF7E1FF3C20FFF7EEFF36
:100580000020FFF7EBFF05460020FFF7E7FF0446DA
:10059000FFF7DCFF44EA052080B238BD38B5FFF72D
:1005A000E9FF0546244C2549204605F03FF9204641
:1005B000234905F03BF92A462046224905F036F941
:1005C000C5F3C0222046204905F030F9C5F380224A
:1005D00020461E4905F02AF9C5F3402220461C4951
:1005E00005F024F9C5F3002220461A4905F01EF94A
:1005F000C5F3C0122046184905F018F9C5F380125A
:100600002046164905F012F9C5F340122046144958
:1006100005F00CF9C5F300122046124905F006F961
:1006200020461149C5F3C00205F000F92046BDE897
:1006300038400E4905F0FAB8140B0010EC370100F1
:1006400000380100363801004E3801006D380100D5
:100650008C380100AB380100CA380100E9380100CC
:10066000083901002739010046390100B83B010073
:1006700038B5FFF763FF5A20FFF770FF0020FFF740
:100680006DFF05460020FFF769FF0446FFF75EFF98
:1006900044EA052080B238BD10B5FFF7E9FF0446F3
:1006A0001D491E4805F0C2F81D491C4805F0BEF85A
:1006B00022461C49194805F0B9F8C4F38F321A498B
:1006C000164805F0B3F8C4F301321849134805F091
:1006D000ADF8C4F3C0221649104805F0A7F8C4F3DA
:1006E000412214490D4805F0A1F814F4807F14BF8D
:1006F0004FF4FE724FF47E720F49084805F096F8E9
:100700000E49E2B2054805F091F8BDE810400348F3
:100710000B4905F08BB800BFEC370100140B00103B
:1007200065390100B6390100D5390100213A0100CF
:100730006D3A0100B93A0100053B0100513B01004F
:100740009D3B010008B5FFF7A7FFFFF727FFBDE8B6
:100750000840FFF753BE70B50446060AC5B2FFF75E
:1007600009FF030601D500F00FF8FFF7E7FEA5200B
:10077000FFF7F4FE3046FFF7F1FE2846FFF7EEFEE6
:10078000FFF7E4FE204670BD38B50E490E4D0F4808
:1007900005F04CF80E4B0124284600211C80FFF781
:1007A00027FD4FF07C5005F08BF928462146FFF7D6
:1007B0001FFD084805F084F9074B1888BDE838404C
:1007C000FFF7C9BFEE3B0100480E0010140B0010EC
:1007D000A80B0010CDCCCC3DF400001013B50F4C8D
:1007E0000F49204605F022F820460E4905F01EF874
:1007F0000D490DF10602204605F035F8FFF738FFE8
:10080000BDF8063020F0FF0040EA0304A4B2204601
:10081000FFF7A1FF054B1C8002B010BD140B0010A8
:10082000EC370100FE3B0100FD370100F400001031
:1008300013B5012302AC1549154824F8023D04F014
:10084000F5FF1449124804F0F1FF134922461048FD
:1008500005F009F8114BBDF806201988914204D023
:100860001A80FFF7A9FDFFF783FDFFF701FFBDF831
:10087000064020F4807040EA0424A4B22046FFF72A
:100880006AFF074B1C8002B010BD00BFEC370100AF
:10089000140B00100B3C0100FD370100A80B0010E9
:1008A000F400001037B5114D002302AC2846104962
:1008B00024F8023D04F0BAFF28460E4904F0B6FFC2
:1008C00022460D49284604F0CEFFFFF7D1FEBDF8C1
:1008D000064020F4006040EAC424A4B22046FFF79A
:1008E0003AFF064B1C8003B030BD00BF140B001054
:1008F000EC370100243C0100FD370100F40000103A
:1009000037B5114D002302AC2846104924F8023DAA
:1009100004F08CFF28460E4904F088FF22460D495A
:10092000284604F0A0FFFFF7A3FEBDF8064020F420
:10093000C06040EA4424A4B22046FFF70CFF064BF7
:100940001C8003B030BD00BF140B0010EC37010059
:10095000433C0100FD370100F400001037B5114D94
:10096000002302AC2846104924F8023D04F05EFF43
:1009700028460E4904F05AFF22460D49284604F045
:1009800072FFFFF775FEBDF8064020F4405040EAC4
:100990000434A4B22046FFF7DEFE064B1C8003B0F1
:1009A00030BD00BF140B0010EC3701005C3C0100AF
:1009B000FD370100F400001037B5114D002302ACE3
:1009C0002846104924F8023D04F030FF28460E491D
:1009D00004F02CFF22460D49284604F044FFFFF79F
:1009E00047FEBDF80640C0F30D0040EA8434A4B2CF
:1009F0002046FFF7B0FE064B1C8003B030BD00BFA1
:100A0000140B0010EC370100763C0100FD370100AB
:100A1000F400001008B51049104804F007FFFFF774
:100A20008DFD7820FFF79AFDFFF7A4FD030602D5A0
:100A30007820FFF793FD0A4804F096FC0028F8D0D0
:100A4000FFF784FD07480121FFF7D2FBBDE808400E
:100A50000248054904F0EABE903C0100140B001066
:100A6000540A0010AC0E0010833701002DE9F84342
:100A7000184B19491B881948002B0BBF4FF0A008D1
:100A80004FF050083C27782704F0D0FEFFF756FDC2
:100A9000C320FFF763FD0025AE000024104B0020AB
:100AA0001B6853F80690FFF759FD09F8040001345C
:100AB0004445F3D10135BD42EED1FFF747FD09486A
:100AC0000121FFF795FBBDE8F8430448064904F00F
:100AD000ADBE00BFA80B00109F3C0100140B00101E
:100AE00000C00720300B00108337010008B5FFF766
:100AF00091FFBDE80840FFF7B9BFC36810B50446D1
:100B00000BB19B689847204610BD000070B50546A4
:100B1000074B064645F80C3B45B100F12C04AC42AE
:100B200004D0103C2046FFF7E8FFF8E7304670BDE0
:100B30007852010010B50446FFF7E8FF204603F0A5
:100B400027FC204610BD000010B50446074B30308E
:100B500003F1200240F8303C5C330260436004F053
:100B600053FE2046FFF7D2FF204610BD0852010079
:100B7000A0F13000FFF7E8BFA0F13400FFF7E4BFB9
:100B8000F0B5214F85B0214C214B69463846009382
:100B9000204E039404F04AFC6846FFF7AEFF1E4B5C
:100BA0006946304600931D4D039404F03FFC6846AF
:100BB000FFF7A3FF1A4B694628460093039404F0FD
:100BC00035FC6846FFF799FF164B69463846009397
:100BD000039404F055FC6846FFF78FFF124B6946FB
:100BE00030460093039404F04BFC6846FFF785FF02
:100BF0000E4B284669460093039404F041FC684676
:100C0000FFF77BFF05B0F0BD480B0010C8360100B0
:100C10001D020000540A0010D90100009C0A0010B7
:100C2000DF01000029020000DB010000DD010000FF
:100C300008B512484FF4164104F030FDFFF73EFCB2
:100C40000F480021FFF7D4FAFFF79AFFFFF79CFD4A
:100C5000FFF78EFB0B490C4804F0E8FDFFF71CFC86
:100C60000A4B53F82030984709480021FFF7C0FA93
:100C700008480021FFF7BCFAECE700BFE40A0010C7
:100C8000AC0B0010EB370100140B0010CC0000106F
:100C9000AC0E0010300B001010B50446FFF754FFE7
:100CA000204603F075FB204610BDA0F13000F3E7AD
:100CB000A0F13400F0E710B50446FFF741FB2046F1
:100CC00003F066FB204610BD2DE9F0433B4D8FB08D
:100CD0003B4C4FF4165300932846002339493A4AB7
:100CE00004F0A8FC22462846384903F02BFB38497B
:100CF0003848FFF72FFB38493848FFF72BFB3849B6
:100D00003848FFF727FB384B384D0093384B2846BF
:100D100001933849384B394A00F0D8F82246284622
:100D2000374903F00FFB374F374E38493848FFF744
:100D300011FB38493848FFF70DFB384D314638462E
:100D400004F044FBDFF8E8803846354F2246294658
:100D500003F0F8FA4146384604F038FBDFF8D49047
:100D60003846304F2246294603F0ECFA39464846C9
:100D700004F02CFB294622462B4D484603F0E2FAAC
:100D80004FF0FF3200920192029203920492059278
:100D900006920792089209920A920B920C9241468F
:100DA0003A462846334604F0A5F9284622461F490C
:100DB0000FB0BDE8F04303F0C5BA00BFE40A00106D
:100DC000C800001002C0092003C00920490B000020
:100DD00032C00920AC0E001034C00920300B0010C6
:100DE0003EC00920AC0B001010C00920C40B00103D
:100DF000B13C010012C009200FC0092011C0092018
:100E000041030000480B001045C0092006C009201E
:100E1000900B001000C00920480E00107153000014
:100E20009C0A001018C00920600E0010BD50000080
:100E300017C00920540A0010D0F88002B0FA80F0E0
:100E40004009704700207047D0F84402704770B5E1
:100E50000024064620460131891A8C420CD0A51880
:100E6000A6EBD503DB7B05F007052B4103F001035F
:100E7000A34018430134F0E770BD000038B50368A3
:100E8000044601330D4604D105480649242204F0E6
:100E90009DFD63680DB1E26800E02269136038BD12
:100EA000DC360100F43601000FB407B5064B04AA86
:100EB0001B6852F8041BD86801920AF0F1FC03B0D9
:100EC0005DF804EB04B0704760050010F7B5044608
:100ED0001D460F461646099900F0A2FC134B3946F1
:100EE00023604FF0FF33009332462B4604F5147015
:100EF00004F5197504F034FB18222846002105F08A
:100F0000F5FF2846089904F00EFD0023C4F880324E
:100F100028460121FFF7B2FF2046054BC4F84832AE
:100F2000044BC4F84C3203B0F0BD00BFE83D0100F3
:100F3000A086010040420F00F8B504460F46154652
:100F400000F5197604F5147430460021FFF796FF7A
:100F500047F04001204604F033FB2916204604F0F8
:100F60002FFB2914204604F02BFB2912204604F005
:100F700027FB2946204604F023FB2046952104F058
:100F80001FFB41F288372046FF2104F019FB0306BE
:100F9000054609D430460121FFF770FF2046FF21A6
:100FA00004F00EFB2846F8BD013FECD1304601218C
:100FB000FFF764FF2046FF2104F002FB4FF0FF30F3
:100FC000F8BD000038B5054641F2883437210022CB
:100FD0002846FFF7B1FF284629210022FFF7ACFF82
:100FE00028B94FF40073C5F87C32012038BD013CAC
:100FF000ECD10248FFF758FF204638BD283E0100DB
:10100000F8B504460F46154600F5197604F5147434
:1010100030460021FFF732FF47F04001204604F040
:10102000CFFA2916204604F0CBFA2914204604F002
:10103000C7FA2912204604F0C3FA2946204604F0D4
:10104000BFFA2046952104F0BBFA41F288352046CC
:10105000FF2104F0B5FA03060BD5013DF7D1304668
:101060000121FFF70BFF2046FF2104F0A9FA4FF002
:10107000FF30F8BDF8B5044600F5197604F5147490
:1010800030460021FFF7FAFE7A21204604F098FA54
:101090000021204604F094FA0021204604F090FA42
:1010A0000021204604F08CFA0021204604F088FA42
:1010B0002046952104F084FA41F288372046FF212A
:1010C00004F07EFA0306054619D42046FF2104F0F9
:1010D00077FA2046FF2104F073FA2046FF2104F03E
:1010E0006FFA2046FF2104F06BFA30460121FFF72A
:1010F000C5FE2046FF2104F063FA2846F8BD013FF3
:10110000DCD130460121FFF7B9FE2046FF2104F073
:1011100057FA4FF0FF30F8BD38B5054641F2883434
:10112000322004F0D9FC2846FFF7A4FF3721002223
:101130002846FFF701FF284629214FF08042FFF79C
:10114000FBFE38B92846FFF795FF0123C5F87C322E
:10115000022038BD013CE3D10248FFF7A5FE20463E
:1011600038BD00BF473E0100F7B5044600F51976CB
:1011700004F5147430460021FFF780FE4821204614
:1011800004F01EFA0021204604F01AFA002120463D
:1011900004F016FA0121204604F012FAAA21204692
:1011A00004F00EFA2046872104F00AFA00252046B2
:1011B000FF2104F005FA030617D48DF80000042778
:1011C0002046FF2104F0FCF902AB2B44013F03F859
:1011D000080CF5D130460121FFF750FE2046FF21D3
:1011E00004F0EEF99DF800000DE0084B01359D423A
:1011F000DDD130460121FFF741FE2046FF2104F0FA
:10120000DFF94FF0FF3003B0F0BD00BF404B4C00A2
:1012100070B5044600F514763046D4F8481204F050
:10122000B9F904F519700121FFF728FE10253046A1
:10123000FF2104F0C5F9013DF9D1204629462A468F
:10124000FFF77AFE012801D00B4811E02046FFF796
:101250008BFF012804D12046BDE87040FFF75CBF3A
:10126000052804D12046BDE87040FFF7ABBE034817
:10127000FFF71AFE002070BD663E01009E3E010091
:101280002DE9F04100F5197780460C4638460021DB
:101290001646FFF7F3FD08F514752846FF2104F004
:1012A0008FF9FE28F7D12644B44228464FF0FF01BB
:1012B00004D004F085F904F8010BF5E704F080F997
:1012C0002846FF2104F07CF938460121FFF7D6FDBE
:1012D0002846FF2104F074F90020BDE8F0812DE9D3
:1012E000F0419846D0F8803205460E461746CBB1FD
:1012F000144607EB08039C4211D2D5F87C222846FD
:1013000011216243FFF718FE80B9314628464FF499
:101310000072FFF7B5FF06F500760134E9E700201B
:10132000BDE8F0814FF0FF30BDE8F0810120BDE85D
:10133000F081F8B5044600F519760D4630460021D7
:1013400004F514741746FFF799FD2046FE2104F0BA
:1013500037F92F44BD42204604D015F8011B04F094
:101360002FF9F7E7FF2104F02BF9FF21204604F0C5
:1013700027F92046FF2104F023F900F01F0005287B
:1013800009D030460121FFF779FD2046FF2104F006
:1013900017F90120F8BD2046FF2104F011F90028BB
:1013A000F9D030460121FFF769FD2046FF2104F006
:1013B00007F90020F8BD2DE9F0419846D0F88032B9
:1013C00005460E461746CBB1144607EB08039C4270
:1013D00011D2D5F87C22284618216243FFF7ACFDD4
:1013E00080B9314628464FF40072FFF7A2FF06F598
:1013F00000760134E9E70020BDE8F0814FF0FF30CE
:10140000BDE8F0810120BDE8F08100007FB5092131
:1014100000220546FFF7F4FD20B12248FFF744FD06
:1014200000203DE0284669461022FFF729FF0446C8
:1014300008B11D48F2E768467F217E22FFF707FDCD
:1014400058B1012828D1C5F87C023F2168463022D6
:10145000FFF7FDFC0130800222E04FF40073C5F875
:101460007C3249213E226846FFF7F1FC31210546D6
:101470002F226846FFF7EBFC5321044650226846B2
:10148000FFF7E5FC012303FA00F005FB000002343E
:10149000A3405843400A03E00448FFF705FD2046F7
:1014A00004B070BDD63E0100FB3E0100213F0100AB
:1014B00038B50446FFF7ACFEC4F8800208B90E4800
:1014C0000DE02046FFF7A2FF1021C4F844024FF4BC
:1014D00000722046FFF730FD054620B10748FFF7B0
:1014E000E3FC012505E004F51470D4F84C1204F077
:1014F00051F8284638BD00BF3A3F0100533F010074
:10150000704770470023438170474089704741818D
:101510007047704738B50446043001F0C9FE0546EF
:101520001CB1236820469B699847284638BD10B5F2
:10153000044602F02DFF204610BD30B589B000F101
:10154000280405464FF480730430694606940793D7
:1015500001F0B6FE68B99DF8090058B195F8283039
:101560002BB920460DF109010D2205F0E5FB2046BF
:1015700000E0002009B030BD70B504460D460646B7
:10158000054B44F8043B0FCD0FC40FCD0FC42B689F
:101590003046236070BD00BF803F01007047704738
:1015A000002070470069704738B50446043001F0E8
:1015B000A1FD05461CB1236820461B6A98472846B2
:1015C00038BD000010B50446024B036002F0FAFE7D
:1015D000204610BDB03F010010B50446FFF7F2FFF2
:1015E000204602F0D5FE204610BD08B5043001F0BB
:1015F00066FC003018BF0120404208BD022A10B529
:10160000044601D1036902E0012A01D1C3681944EB
:10161000201D01F07AFD08B9E06810BD4FF0FF30E1
:1016200010BD07B5043001AB01F09CFB08B901986F
:1016300001E04FF0FF3003B05DF804FB07B5043064
:1016400001AB01F08CFC08B9019801E04FF0FF30CC
:1016500003B05DF804FB000084B038B5054605AC66
:1016600084E80E00064B214640F8043B4FF4097213
:1016700005F062FB2846BDE8384004B0704700BF63
:10168000B03F0100002070470020704700207047E5
:10169000014608B501F510710122103001F08EFAF3
:1016A000003018BF0120404208BD036810B59B6B95
:1016B00004469847024640B904F5107101F07EFADD
:1016C000003018BF0120404210BD4FF0FF3010BD68
:1016D00010B58AB001A801F0AFFD48B94FF494707D
:1016E00002F04AFE044601A9FFF746FF204600E04B
:1016F00000200AB010BD08B5084601F057FE0030C2
:1017000018BF0120404208BD08B500214FF4007207
:1017100000F5107001F088FF003018BF0120404232
:1017200008BD08B50846114601F002FF003018BF99
:101730000120404208BD08B5084601F0EDFD00302B
:1017400018BF0120404208BD70B50D46064614463C
:10175000ADF5D46D03F01AFD2B4686A81F4906F59A
:10176000107206F033F8A50705D414F0010F14BF6A
:101770000222012200E00322A00505D561054CBF2D
:1017800042F0080242F0100296A886A901F03EFA43
:1017900000BB230703D596A8999901F0B6FC0DF27A
:1017A0007C4596A94FF40972284605F0C5FA4FF416
:1017B0000A7002F0E1FD04460DF591614FF40672E6
:1017C000684605F0B9FA95E80E002046FFF744FF99
:1017D000204600E000200DF5D46D70BD28400100CA
:1017E00007B501A804F096F901A805F0A7F8C168AB
:1017F0008268090441EAC2214268036841EA421151
:10180000022293FBF2F341EA030243690069503B71
:1018100042EA4363013043EA405003B05DF804FB01
:1018200070B504460E4603F071FD0E4B23600E4B5F
:101830001D6825B10D48314604F02AF90FE01C60FF
:10184000302384F8403284F84152204603F09EFC55
:1018500004F1100004F510712A4601F0AFF920469A
:1018600070BD00BFE83F0100C40E00102F40010012
:10187000094B10B50360094B04461A68824206D131
:10188000002004F510710246186001F097F9204617
:1018900003F048FD204610BDE83F0100C40E0010D3
:1018A0007F2816D931B1FF2812D80A4B803833F877
:1018B00010007047074A8BB232F81120824203D0E1
:1018C00001318029F6D10B4603F18000C0B2704788
:1018D00000207047644001007F2830B506D8A0F191
:1018E0006103192B18D8203880B230BD00214FF485
:1018F000F7740C22631A094D01EB530335F81350AA
:10190000A84205D094BF1C461946013AF2D130BD19
:1019100012B1034A32F8130030BD00BF4045010048
:101920006441010008B5044B53F820000368DB6AEA
:101930009847C0B208BD00BFC40E001008B5044BE4
:1019400053F8200003689B6A9847C0B208BD00BFE7
:10195000C40E001010B5054C54F820000468246B28
:10196000A047002814BF0420002010BDC40E0010A2
:1019700010B5054C54F820000468646BA04700289B
:1019800014BF0420002010BDC40E0010012938B57A
:101990000C46154610D004D3032918D10123136037
:1019A00013E00E4B53F8200098B103689B6B9847E7
:1019B000003018BF012038BD084B53F8200040B15B
:1019C0000368DB6B984730B12860002038BD0420E5
:1019D00038BD032038BD204638BD00BFC40E0010FE
:1019E00001380A44914204D011F8013B00F8013F4C
:1019F000F8E770470244904202D000F8011BFAE772
:101A00007047C1F307238176090C01750912C3766B
:101A10004175704700F10B01002310F8012B02EB18
:101A2000C31202EB5303884203F0FF03F5D11846BB
:101A30007047036810B593B11A46144612F8011B9B
:101A40001F290AD93A29F8D11A4612F8011B9442E3
:101A500005D1302903D102330360002010BD4FF0BF
:101A6000FF3010BD08B568B103685BB11A784AB1A0
:101A7000D9888288914205D15878FFF753FF10F03A
:101A8000010000D0092008BD03692DE9F0410D4691
:101A90000931002B39D0436900245E1E16F8012F4E
:101AA0000134202A18D0052A56D0092C02D12E271D
:101AB0000F700131A2F14107192F0BD8082C1F7BA1
:101AC0008CBF4FF0100E4FF0080E1EEA070F1CBF20
:101AD0002032D2B20A7001310B2CDFD1DA7A2A72AD
:101AE0009A7FDC7F120442EA04621C7F22435C7FFF
:101AF00042EA04222A605C7E1A7E42EA0422AA801C
:101B0000DA7D9B7D43EA0223EB8000240C70AE69F2
:101B10003EB303690BB900241AE0EB69002BFAD03D
:101B20004FF6FF73028C9A42F5D0D0F81C80771ED6
:101B300038F8140060B10021FFF7B2FE0028EAD0A7
:101B4000EB69013B9C42E6D2013407F8010FEFE755
:101B500000233355BDE8F081092C4FF0E502B9D1DF
:101B6000A5E7BDE8F081CA7E8B7E032843EA022305
:101B700001BF487D0A7D42EA002243EA024318463B
:101B80007047F8B5C56A00F1300704463946407819
:101B90002A460123FFF7ECFEA0B9236AA269EB1ADB
:101BA0009342207101D30020F8BDE678012EFAD9C6
:101BB000A36960781D4439462A460123FFF7D8FE01
:101BC000013EF3E70120F8BD03790BB1FFF7D9BF60
:101BD00018467047F8B50446FFF7F6FF0546002D96
:101BE00052D12378032B47D16679012E44D104F1D9
:101BF0003007384629464FF40072FFF7FBFE5523A5
:101C0000412284F82E32AA2384F82F3284F833201C
:101C1000522384F81622226984F8303084F8313057
:101C2000612384F8323084F81732C2F3072384F832
:101C3000182284F81932130C120E84F81B22E26861
:101C400084F81A32C2F3072384F81C2284F81D3268
:101C5000130C120E84F81F22E2697221013284F8FB
:101C6000141284F8151284F81E32E2626078394644
:101C70003346FFF77DFE6571002160780A46FFF765
:101C800085FE003018BF0120F8BDC36A70B59942C7
:101C900006460D4611D0FFF797FF044670B92A4655
:101CA000707806F130010123FFF754FE00281CBFB5
:101CB0004FF0FF350124F56200E00024204670BD9E
:101CC000002310B503714FF0FF33C3620446FFF7E2
:101CD000DCFF80BB94F82F2294F82E3243EA0223D3
:101CE0004AF65522934228D194F8683094F8692036
:101CF0001B0443EA026394F86620134394F86720B8
:101D000043EA02230E4A23F07F43934216D094F80D
:101D1000843094F885001B0443EA006094F8823014
:101D2000034394F8830043EA002020F07F40801AA8
:101D300018BF012010BD032010BD022010BD00BF40
:101D400046415400F0B50023036085B007460846BD
:101D50001546FFF76EFE061EC0F23481B64B53F8EF
:101D60002640002C00F030813C60237883B16078FD
:101D7000FFF7D8FDC7070BD4002D00F0218100F03C
:101D8000040303F0FF00002B00F054810A2051E10E
:101D9000F0B2002323706070FFF7D0FDC60700F19A
:101DA00015810DB14107F1D420460021FFF788FFCE
:101DB000012828D12146002091F8F2316BB191F829
:101DC000F83191F8F9211B0443EA026391F8F621F6
:101DD000134391F8F72143EA02234DF820300130F4
:101DE000042801F11001E7D100265DF826502DB13D
:101DF00020462946FFF764FF60B100E0022001366B
:101E0000042EF2D100E00025032800F0E18008B1A3
:101E10000D200FE194F83C2094F83B3043EA022374
:101E2000B3F5007FF4D194F8470094F8463053EAB4
:101E300000200DD194F8563094F857001B0443EA63
:101E4000006394F85400034394F8550043EA0020DB
:101E500094F84060A061731E012BE670D8D894F806
:101E60003D30A370002BD3D05A1E1A42D0D194F823
:101E7000412094F8427042EA07273A072781C7D1E8
:101E800094F8441094F8432052EA01220DD194F8BA
:101E9000522094F85310120442EA016294F8501050
:101EA0000A4394F8511042EA012294F83FE094F872
:101EB0003E1051EA0E21ABD006FB00FE01EB171CD1
:101EC000F4446245A4D3CCEB0202B2FBF3F3002B43
:101ED0009ED040F6F572934206D94FF6F576B3429E
:101EE0008CBF0326022600E001266A1802330CEBA1
:101EF0000501032E6361E5612262A16212D1002F08
:101F000086D194F85E2094F85F10120442EA0162D0
:101F100094F85C109B000A4394F85D1042EA012299
:101F200062620EE0002F3FF473AF7244022E6262D1
:101F30004FEA43020FBF1346D21803F0010303EB2D
:101F4000520303F2FF13B0EB532FFFF461AF4FF0D6
:101F5000FF332361E360032E4FF08003637128D1C8
:101F600094F8612094F8603043EA0223012B20D1D9
:101F70002046691CFFF789FED8B994F82F2294F8FF
:101F80002E32607143EA02234AF65522934210D161
:101F900094F8323094F833201B0443EA026394F837
:101FA0003020134394F8312043EA0223234A93421A
:101FB00010D0234A2670138801339BB21380E3802C
:101FC000002037E00B2035E00C2033E0032031E027
:101FD00001202FE094F8163294F817221B0443EAEC
:101FE000026394F81422134394F8152243EA02235F
:101FF000144A9342DDD194F81A3294F81B221B0440
:1020000043EA026394F81822134394F8192243EA2E
:102010000223236194F81E3294F81F221B0443EA22
:10202000026394F81C22134394F81D2243EA02230E
:10203000E360BEE705B0F0BDCC0E00105252614126
:10204000C80E00107272416143690239023B994225
:102050003DBF8278836A02FB01300020704701296E
:10206000F8B506460C465ED9436999425BD20378BF
:10207000022B29D0032B3AD0012B54D101EB51056F
:10208000016A01EB5521FFF700FE10B14FF0FF3060
:10209000F8BD316A6F1CC5F308053544304601EBC5
:1020A000572195F83050FFF7F0FD0028EED1C7F327
:1020B00008073E4496F83000E30745EA00204CBF8D
:1020C0000009C0F30B00F8BD016A01EB1421FFF712
:1020D000DCFD0028DAD1640004F4FF7433193444C1
:1020E00093F8303094F8310043EA0020F8BD016ADB
:1020F00001EBD411FFF7C9FD0028C7D1A30003F4F9
:10210000FE7404F130033344D8789A7800065B7883
:1021100040EA0240344440EA032094F83030184347
:1021200020F07040F8BD0120F8BDF8B50546846880
:102130000E46012CE98001D10220F8BD03685A69DE
:102140009442F9D254B91A78032A01D15A6A22B9B1
:102150001A899642F0D2586A17E0144621469F78B1
:102160003F01BE420DD32868FFF779FF431C0146AB
:102170001AD00128E0D92B685B699842DCD2F61BA3
:10218000EFE728680C46FFF75FFFEC600028D3D02C
:102190002B6800EB1610303306F00F0603EB4616E3
:1021A00028616E610020F8BD0120F8BD01292DE9EC
:1021B000F04106460C46154670D9436999426DD2E6
:1021C0000378022B3AD0032B49D0012B66D101EBC7
:1021D0005107016A01EB5721FFF757FD00285ED137
:1021E00007F10108C7F3080714F00104374418BFCA
:1021F00097F83020EBB21EBF02F00F0242EA031341
:10220000DBB2316A87F8303001233371304601EB9D
:102210005821FFF73AFD002841D1C8F308033344A1
:1022200014B1C5F3071506E093F83020C5F3032574
:1022300022F00F02154383F830502BE0016A01EBC6
:102240001421FFF722FD50BB640004F4FF7433191E
:1022500083F83050C5F3072583F831501AE0016A3E
:1022600001EBD411FFF711FDC8B9A40004F4FE740A
:1022700004F130033344DA783444120602F0704239
:102280001543C5F3072284F830505A702A0C2D0EDE
:102290009A70DD7001233371BDE8F0810220BDE842
:1022A000F081F8B505460F4631B9C66896B1436965
:1022B0009E4228BF01260EE0FFF7D1FE01283FD93C
:1022C000441C02D14FF0FF30F8BD6B69984238D3FF
:1022D0003E4600E0012634466B6901349C4204D33B
:1022E000012E01D80020F8BD022428462146FFF720
:1022F000B6FE30B1411C24D0012822D0B442EBD12B
:10230000F0E7284621466FF07042FFF74FFFA8B96B
:1023100057B92B69EC605A1C0ED0013B2B616B79CD
:1023200043F001036B7107E0284639462246FFF768
:102330003DFF0028EDD001E02046F8BD0128C1D0C6
:102340000120F8BD2DE9F843C68804460136B3B232
:102350000F4613B90420BDE8F8830369002BF9D0B8
:1023600016F00F0859D1C16801330361006819B92B
:1023700003899E42EED250E08378013B13EA1613A4
:102380004BD1FFF76CFE0128054602D80220BDE8BC
:10239000F883421C02D10120BDE8F883206843691C
:1023A0009D4234D3002FD5D0E168FFF77AFF054670
:1023B00000283BD00128E9D0431CECD02068FFF76F
:1023C00003FC07460028E6D12068394630304FF438
:1023D0000072FFF70FFBD4F8009029464846FFF73C
:1023E00033FEC9F82C0023689A7897420CD2012258
:1023F0001A712068FFF7E8FB0028CCD1226801376A
:10240000D36A0133D362EEE7DA6AD71BDF62E56095
:1024100020682946FFF718FE20612368E6803033E4
:1024200003EB481363610020BDE8F8830720BDE893
:10243000F88300002DE9F74F4FF6FF734FF0FF08C8
:1024400006464546038430683169FFF71EFC07469F
:10245000002840F0838074692378002B7DD0E52B21
:10246000E17A6DD001F03F02090702D50F2A67D14A
:1024700001E00F2A50D1D6F81CB0BBF1000F63D099
:10248000580606D503F0BF05F38894F80D80338411
:1024900001E0AB4257D1637B434554D1E77EA37E35
:1024A00043EA07273FB2002F4DD194F80090012254
:1024B00009F03F0909F1FF334FF00D0909FB03F95A
:1024C000284BFB5CE11891F801A0E35C43EA0A2A7F
:1024D0008AB1B9F1FE0F36D85046FFF7FDF90190E9
:1024E0003BF81900FFF7F8F9019B83422BD109F162
:1024F0000109524603E04FF6FF739A4523D1013795
:102500000D2FDDD12378590603D512B13BF81930D0
:10251000CBB9013DEDB217E025B92046FFF77AFAB5
:1025200080451BD0B369DA7AD20709D404F10B02D3
:10253000944213D014F8010B13F8011B8842F7D012
:102540004FF6FF733384FF2530460021FFF7FAFE74
:10255000074600283FF477AF00E00427384603B071
:10256000BDE8F08F1C4901002DE9F74F0B780646B6
:102570002F2B0F4601D05C2B00D101370024B46013
:102580003B781F2B72D830462146FFF7CEFD746191
:1025900015E1013339F81320202AFAD02E2AF8D079
:1025A0000BB144F00304524632F8021D2E2901D02B
:1025B000013DF9D14FF0000BD8464FF0080A39F829
:1025C00013005A1C002800F0CA80202800F09B80CD
:1025D0002E2800F09680D345C0F09980BAF10B0FF9
:1025E00040F09880434644F003044FF00B0AB26970
:1025F0001178E52904BF05211170BAF1080F04BF55
:102600004FEA88085FFA88F303F00C020C2A00F006
:10261000A88003F00301032900F0A380A10709D4D7
:1026200003F00303012B08BF44F01004042A08BF81
:1026300044F00804B3693046DC720021FFF775FDF1
:1026400010B93046FFF7F6FEB369DB7A002840F098
:102650008B805A0700F1B3807169CB7ADB0640F1B9
:102660008B8033681878FFF77EFAB0603B783C4681
:102670002F2B07F10107F9D05C2BF7D0D6F81C906F
:1026800004F1FF3AA9F1020800251AF8010F6F1CA6
:102690001F2818D92F2816D05C2814D0B7F5807FB2
:1026A00075D00121FFF7FCF8002870D07F2806D8EC
:1026B000444A12F8013F13B18342FAD167E028F887
:1026C000020F3D46E1E72028274409EB450334BFCC
:1026D00004240024002D5AD033F8022D202A01D0E2
:1026E0002E2A01D1013DF5E74FF0000829F81580A9
:1026F000B06920210B22FFF77DF909EB450A43461B
:1027000048E7AA4245D044F00304134657E7AA42DB
:102710000FD13EE0AA4202D044F003041FD84FEA92
:1027200088085FFA88F82A464FF00B0A4FF0080B2A
:10273000EBE77F280CD900210192FFF7B1F8019A4D
:1027400018B1214B184410F8800C44F00204A8B1D1
:102750001E4911F8013F03B38342FAD10EE043460C
:1027600045E744F0020459E7042828D113F0040F88
:1027700014BF0420052022E0052020E044F00304DB
:102780005F20B36903F80B000BF1010BBDE70620D6
:1027900015E0BAF10B0FC2D124E7A0F141039BB2BF
:1027A000192B02D848F00208EBE7A0F161039BB2B5
:1027B000192B9EBF203848F0010880B2E1E703B032
:1027C000BDE8F08F2849010084490100314901002A
:1027D0002DE9F041866986B0C4690546314603A8F3
:1027E0000C22FFF7FDF89DF81730DB0763D50023B7
:1027F000F3720127EB61304603A90B22FFF7F0F8D3
:10280000052F15D93B46A01E30F8022F8AB11021A2
:1028100002F0010E0EEB430313F4803F1CBF83F460
:10282000883383F0210301394FEA5202F0D1EBE7FC
:102830003B46072203F00F0000F13001392988BF21
:1028400000F13701013A06A810441B0900F8131CD7
:10285000F0D106A97E20114401F8140C934201D155
:10286000334404E0F15C2029FAD00133F6E7072A6B
:102870009DBF06A9891811F8141C202103F8011B1B
:10288000A3EB060198BF01320729F0D928460021A1
:10289000FFF74BFC40B92846FFF7CCFD20B90137C4
:1028A000642FA8D10720A4E0042840F0A2809DF85E
:1028B0001730F372EC619DF817309B0701D40126A5
:1028C00009E0002334F813200AB10133FAE7193381
:1028D0000D26B3FBF6F628460021FFF726FC00285C
:1028E00040F08480044628682969FFF7CEF9002863
:1028F0007CD16B691B78E52B00D01BB90134B44245
:1029000001D107E0044628460121FFF71BFD0028FE
:10291000E9D06BE0013C1AD128682969FFF7B5F9C5
:10292000044690B9686921462022FFF763F80B221C
:102930006869A969FFF754F8AB696A69DB7A03F043
:10294000180313732B6801221A71204651E0E9889D
:102950002846091BFFF7E9FB00284AD1A869FFF7C1
:1029600059F8064628682969FFF78FF90346002BB6
:102970003FD16A690F21E7B2D5F81CC00D20D17292
:10298000791E41431846567313739376D3764FF6E8
:10299000FF7E7045DFF860E018BF3CF8110013F8C7
:1029A0000EE04FEA202802F80E0096448EF80180CF
:1029B0004FF6FF7E03F1010318BF0131002808BF65
:1029C00070460D2BE3D1704502D03CF811300BB9A5
:1029D00047F0400717702B6801221A712846002122
:1029E000FFF7B0FC28B9013CBCD195E7042808BF2B
:1029F000072006B0BDE8F0811C4901004FF6FF73C7
:102A000070B5018CC6880546994208BF3146FFF76C
:102A10008CFB0446E8B928682969FFF736F90446B3
:102A2000A0B9202268692146FEF7E4FF6B69E52220
:102A30001A702B6801221A71EB88B34209D2214621
:102A40002846FFF77FFC04460028E4D0042C08BF8A
:102A50000224204670BD00002DE9F041FF26074604
:102A6000344604253969002967D03868FFF70DF925
:102A70000546002863D178690378002B69D0E52BDF
:102A8000C27A51D02E2B4FD002F03F0222F020010B
:102A9000082949D00F2A40D15A0605D503F0BF04B2
:102AA000FB88467B3B8401E0A3423DD1437BB3429C
:102AB0003AD1C27E837EFD6943EA02231BB29BBBEF
:102AC00002780D2102F03F02013A4A434FF0010E15
:102AD000224913F801C000EB0C0191F8018010F8B5
:102AE0000C1041EA0821BEF1000F06D0FE2A1BD8C7
:102AF00025F812108E46013203E04FF6FF7C614547
:102B000012D101330D2BE3D103785B061AD5FE2ACF
:102B10000AD8002325F8123014E0B4B9FEF77AFF82
:102B2000864212D1002516E0FF2438460021FFF727
:102B300009FC0546002895D001E0002DF2D00023C5
:102B40003B6108E0013CE4B2EFE74FF6FF733B84E2
:102B500001E00425F3E72846BDE8F0811C490100A7
:102B6000012970B504460D4601D8022070BD4369A5
:102B70009942FAD263699D4205D220462946FFF761
:102B80006EFA064608B9002070BD0128EDD0411C40
:102B900011D0204629460022FFF708FB60B92369BF
:102BA00035465A1C1FBF01332361637943F001038B
:102BB00018BF6371DEE7012070BD00001FB50190F2
:102BC00004A840F8041D00911446FEF732FF011ED0
:102BD00014DB0D4B53F8210008B10022027001985C
:102BE00008B10022027043F8210050B1012C07D136
:102BF00001A869460022FFF7A5F802E00B2000E0DB
:102C0000002004B010BD00BFCC0E00102DE9F04331
:102C10008FB0019114460646002800F097800023EB
:102C2000036001A905A802F01E02FFF78BF8002837
:102C300040F0938002AB0B93494B05A801990C938C
:102C4000FFF792FC0A9D10B9002D08BF062014F072
:102C50001C0F04F01F0748D048B1042802D105A872
:102C6000FFF7B6FD47F008070A9D30B175E0EB7A33
:102C700013F0110F70D163076AD43C073ED5FEF7FD
:102C8000AFFD0024C0F30743C1B2C0F30722DDF853
:102C90001480000EA9732B74A9752B76EC722C7717
:102CA0006C77AC77EC77EA736874EA75687698F8B5
:102CB00000002946FEF757FF0123AC76EC762C7511
:102CC0006C7588F804300446C0B140462146D8F8F7
:102CD0002C90FFF745FF00283FD10598013CC460C8
:102CE0004946FEF7D2FF48B137E0002835D1EB7AEC
:102CF000D8062FD4A10701D5DA072DD4DDF814802A
:102D00003B07D8F82C304FF0000448BF47F02007AD
:102D1000F3613562B771F47198F800002946FEF747
:102D200022FF3061AB7FEA7F1B0443EA02632A7F04
:102D3000204613436A7FB46043EA0223F360B8F885
:102D40000630B461C6F80080B38006E0092004E0D4
:102D5000082002E0042000E007200FB0BDE8F08367
:102D6000D00E00102DE9F84F98460023C8F8003027
:102D700005460F461446FEF775FE002840F09D807C
:102D8000E879002840F09980AB79D90740F1948028
:102D9000EB68A868181A844228BF0446002C00F08B
:102DA0008880AB68C3F30802002A69D12868867856
:102DB000013E06EA532616F0FF0610D10BB928692A
:102DC00002E06969FFF74BF9012801D8022002E00F
:102DD000421C03D10120E871BDE8F88F6861D5F885
:102DE00000B069695846FFF72FF90028EED05FEA76
:102DF000542900EB060A23D09BF8023009EB0602A7
:102E00009A4288BFC6EB03099BF801003946524637
:102E10004B46FEF79FFD0028DCD1AB795B060CD555
:102E2000A869CAEB0000484507D207EB402005F12E
:102E300024014FF40072FEF7D3FD4FEA49262DE03E
:102E4000AA6952451AD0AB7905F1240613F0400F58
:102E50000BD09BF8010031460123FEF789FD0028C5
:102E6000B8D1AB7923F04003AB712B683146587869
:102E700052460123FEF76EFD0028ABD1C5F818A01D
:102E8000A9683846C1F30801C1F50076A64228BFFB
:102E90002646294424313246FEF7A2FDAB6837446A
:102EA0003344AB60D8F80030A41B3344C8F800307A
:102EB00074E72046BDE8F88F0720BDE8F88F70B5AD
:102EC0000446FEF7CFFD002848D1A37903F0200285
:102ED00002F0FF00002A41D05B060DD5214651F8D3
:102EE000243BA26958780123FEF742FD002833D124
:102EF000A37923F04003A3712068E169FEF7C5FEC2
:102F0000054658BB266AF37A304643F02003F37235
:102F1000E3683377A3891B127377E389B377E37B85
:102F2000F3772169FEF76DFDFEF75AFCC0F3072326
:102F3000B075F375030C000E33767076B574F574C6
:102F4000A379012223F02003A37123681A7120685A
:102F5000BDE87040FEF73EBE012070BD70BD2DE99A
:102F6000F74F98460023C8F8003004460F4616462F
:102F7000FEF778FD002840F0BA80E079002840F0A4
:102F8000B680A379990740F1AF800546A368DE4279
:102F900028BF0026BEB1A368C3F30802002A7BD174
:102FA000206890F802A00AF1FF3A0AEA532A1AF0C0
:102FB000FF0A1CD113B9216961B900E06169FFF70B
:102FC00070F9014630B9A368E268934240F282800A
:102FD000E3607FE0012901D1022002E04A1C02D116
:102FE0000120E07183E02369616103B92161A37964
:102FF0005B060DD5214651F8243BA2695878012380
:10300000FEF7B6FC0028EBD1A37923F04003A371AF
:103010002368616918460193FFF716F80028DBD092
:103020005FEA562900EB0A0B019B23D09A7809EB43
:103030000A01914288BFCAEB0209587839465A46BC
:103040004B46FEF795FC0028CAD1A169CBEB0101E4
:1030500049450BD204F1240007EB41214FF40072E3
:10306000FEF7BEFCA37923F04003A3714FEA492980
:10307000012523E0A2695A450CD0A168E26891427B
:1030800008D2587804F124015A460123FEF762FC65
:103090000028A5D1C4F818B0A0683946C0F30800CC
:1030A000C0F50079B14528BFB146204424304A46D6
:1030B000FEF796FCA37943F04003A371A3684F4445
:1030C0004B44A360D8F80030C9EB06064B44C8F85F
:1030D00000305FE7A37943F02003A37135B12046A8
:1030E000FFF7EDFE002002E0072000E0284603B0D5
:1030F000BDE8F08F10B50446FFF7E1FE20B9204689
:10310000FEF7B0FC00B9206010BD70B504460D4656
:10311000FEF7A8FC002840F08E80E079002840F0FF
:103120008A80E3689D4204D9A27912F0020F08BF99
:103130001D460022A368A2600DB900254EE020685C
:10314000867876026BB1013B6A1EB2FBF6F2B3FBE6
:10315000F6F18A4205D372421340A360ED1A616909
:103160000FE0216961B9FFF79CF80128014601D100
:10317000022002E0013002D10120E07170BD216126
:1031800061610029D9D0B5421AD9A37920689A077C
:1031900004D5FFF786F8014618B910E0FEF75FFF87
:1031A00001464B1CE8D00129E2D923685B699942AA
:1031B000DED2A36861613344A360AD1BE3E735460B
:1031C000A3682B44A360C5F30803002BB5D0206887
:1031D000FEF73AFF0028CBD000EB5525A368C3F3D8
:1031E0000803F3B1A26995421BD0A37904F1240628
:1031F00013F0400F0BD02368314658780123FEF7B7
:10320000B7FB0028B8D1A37923F04003A37123684A
:10321000314658782A460123FEF79CFB0028ABD1A3
:10322000A561A368E2680020934281BFE360A379AF
:1032300043F02003A37170BD10B586B00191044620
:1032400040B302A801A90022FEF77CFDF8B9029B59
:103250002046236003ABA361144B0199E361FFF7A0
:1032600083F9E8B9616939B1CB7ADB060ED5029BE7
:103270001878FEF778FCA060029B2046DB880021CE
:10328000A380FEF752FF0346042B05D1052000233F
:10329000236008E0092006E0002BF8D1184602E080
:1032A0000428F4D1F2E706B010BD00BFD00E001024
:1032B00010B50446FEF7D6FB00B9206010BD000033
:1032C0007FB504460E46FEF7CDFB0546F8B926B994
:1032D00020462946FEF729FF18E001ABA3610D4BFC
:1032E0002046E361FFF7B8FB042801D1256100E027
:1032F00060B920463146FEF7C7FB20460021FFF7A4
:1033000021F8042802D10023236100E00546284665
:1033100004B070BDD00E001030B599B0019001A975
:1033200006A80122FEF70EFD00283BD103AB0C934B
:103330001D4B06A801990D93FFF716F9002831D10E
:103340000B99E1B1CD7AEA071BD4069B1878FEF7FA
:103350000AFC0446B8B1EB0615D50FA806A924222D
:10336000FEF73EFB0FA802211194FEF7DEFEC8B95E
:103370000FA8FFF771FB20B1042804D012E006204B
:1033800010E007200EE006A8FFF738FB50B91CB983
:103390000698FEF71FFC05E006982146FFF7E0FBC4
:1033A0000028F5D019B030BDD00E00102DE9F04F37
:1033B00091B00390FEF714FA03A90446012207A86E
:1033C000FEF7C0FC83460546002840F0AA8004AB07
:1033D0000D93564B07A803990E93FFF7C5F8834644
:1033E00088B1042840F09D8029460798FEF759FFD0
:1033F000054658B101280CD14FF0020B0798294619
:10340000FFF7AEFB8DE04FF0080B8AE04FF0070BA3
:10341000F4E7431C68D00798FEF7D6FB83460028E4
:10342000ECD1079E29463046FEF70EFE06F1300726
:1034300059464FF4007280463846FEF7DBFA3846AC
:1034400020210B22FEF7D6FAE3B201939DF8043057
:1034500010224FF02E0BC4F30729C4F3074A240EA1
:1034600086F83B2086F846303846294686F830B044
:1034700086F8479086F848A086F84940FEF7C1FADA
:1034800006F1500C604639462022CDF808C0FEF700
:10349000A7FA079A86F851B0107809990328DDF841
:1034A00008C003D1526A914208BF00216046FEF76E
:1034B000A8FA079A9678D6B1079808F10103029303
:1034C0000123C0F82C800371FEF75BFB83460028C4
:1034D00094D1384659464FF40072013EFEF78AFAFD
:1034E000F6B2DDF80880E6E74FF0010B86E707A8A3
:1034F000FFF76EF98346002880D10C981023C37221
:103500009DF8043080F81790837580F818A04476F1
:103510002946FEF776FA079801230371FEF75AFB56
:103520008346584611B0BDE8F08F00BFD00E0010A2
:1035300030B59FB0019000910CA801A90122FEF7BF
:1035400001FC00286CD10C9B0CA8159303AB1293C3
:10355000344B01991393FFF707F8002860D11199B4
:1035600000294ED006A80B311522FEF739FA15A80E
:103570000CA92422FEF734FA6846FEF75AFA00280E
:1035800041DB15A80099FEF7EFFF00283DD0042885
:1035900046D115A8FFF71CF9002841D11A9D0DF15D
:1035A0001A0105F10D001322FEF71AFA9DF81830E2
:1035B0000C9C43F02003EB7201232371EB7ADB06B2
:1035C00025D5179B0E9A9A4221D029462078FEF7DE
:1035D000CAFA01462046FEF737FD0146F8B12046FB
:1035E000FEF753FB0C9BD8B993F851202E2A0ED12D
:1035F00003F150001799FEF704FA0C9B01221A718F
:1036000005E004200CE00B200AE0082008E00CA8EC
:10361000FFF7F4F920B90C98FEF7DCFA00E002207D
:103620001FB030BDD00E00102DE9F04F012989B038
:103630000590894616461ED805A8FEF7FAF9002817
:103640001BDB8F4B53F82040CCB10023C7B2237053
:103650003846FEF773F9C20713D4430713D438462C
:10366000012107AAFEF792F908B10120C2E2079BE7
:103670007F2BFAD909E01320BCE20B20BAE20C2020
:10368000B8E20320B6E20A20B4E2B9F1000F14BF99
:103690004FF0000A4FF03F0A721ECAEB030332429A
:1036A000079302D1002E40F08C824FF4FA61B3FBF5
:1036B000F1F10022734830F81200814201D2013248
:1036C000F8E7714931F81260B6F5007F01D3760A48
:1036D00000E01EB1812E28BF802600E00126B3FB4A
:1036E000F6F540F6F572954240F270824FF6F572AB
:1036F000954240F27A82AD0005F2072500226D0A5C
:103700004FF0030801924FF0200C0CEB0A020092DC
:10371000019A02EB050B009A9344CAEB06025A4445
:10372000934201D20E2065E23846032106AACDF865
:1037300008C0FEF72BF9DDF808C0002840F03E82F3
:10374000069B013BB3F5004F80F03882069AB8F132
:10375000030F02F1FF335B44C2F1000203EA0203EC
:1037600008BF009ACBEB030304BFD2189C44069316
:1037700008BF1346079A14BFED1800930199CCEBCC
:1037800002035B1B5B1AB3FBF6F3B8F1020F029363
:1037900005D140F6F57302999942C3D915E0B8F105
:1037A000030F07D14FF6F573029A9A42BAD94FF038
:1037B0000C0B11E0B8F1010F07D1B2F5803F2CBF1F
:1037C0004FF0060B4FF0010B06E0B2F5803F2CBF27
:1037D0004FF0060B4FF0040BB9F1000F56D104F176
:1037E0003003184649464FF400720393CDF810C0D9
:1037F000FEF700F943F6C161FE2284F8F321079A2F
:10380000039B0AEB0200B0FBF1F18808069184F8F3
:10381000F5113F2184F8F611C2F3072184F8FA214B
:1038200084F8FB11110C120E84F8FD2155224FF083
:10383000010E40F03F0084F82E22AA2284F8F40101
:1038400084F8FC1184F82F22194684F8EFE184F8FB
:10385000F0E184F8F19184F8F2B184F8F79184F8FA
:10386000F89184F8F99138464A467346FEF780F895
:1038700000287FF4FAAE4FF0F80BDDF810C007E037
:10388000CC0E0010044A01006E4901004FF0F00B0D
:1038900004F13009484600214FF40072CDF80CC005
:1038A000FEF7A8F84846D5490B22FEF799F8002301
:1038B000B8F1030F84F83B3084F8413018BF02237D
:1038C00084F84230079B0222B3F5803F84F83C2005
:1038D0004FF0010284F8402028BFC3F30722DDF82F
:1038E0000CC035BF84F8433084F850301B1284F884
:1038F000512025BF1A0C1B0E84F8443084F8533035
:103900004FF03F0328BF84F8522084F83EC0FF22C6
:10391000CCF3072C84F84830002384F8493084F82D
:103920004A2084F84B3084F84D3084F84E3084F8C7
:103930004F3084F83D6084F83FC084F845B084F887
:103940004CA00393FDF74CFFB8F1030F069082B231
:10395000039B33D1121284F87420020C84F8752072
:10396000C5F3072284F855202A0C84F856202A0E25
:1039700084F85720022284F85C2084F85D3001220C
:1039800084F85E3084F85F3084F8613084F8633006
:10399000802384F8730084F86020000E062284F8E7
:1039A0007030292384F8760084F8545084F862201B
:1039B00084F8723004F17700914919E0030C84F81F
:1039C0005930C5F3072384F84730802384F8570023
:1039D0001212000E84F854308A49292384F85A00C0
:1039E00084F8582084F8465084F8563004F15B007F
:1039F0001322FDF7F5FF552384F82E32AA2384F80D
:103A00002F323846494652460123FDF7B1FF0028C0
:103A10007FF42BAEB8F1030F06D1384649460AF1C0
:103A200006020123FDF7A4FF484600214FF400726F
:103A3000FDF7E0FFB8F1030F14D0734BB8F1010F9D
:103A400018BF6FF0FF0343EA0B03FF224FEA136B2B
:103A5000069384F8303084F8312084F8322084F8DA
:103A600033B01CE06BF0FF03069384F83030FF2383
:103A700084F8313084F8323084F8333084F83430CC
:103A800084F8353084F8363084F8373084F83830AC
:103A900084F8393084F83A300F2384F83B30009BA7
:103AA00049461A4603F1010B38460123FDF760FF32
:103AB000014600287FF4D9AD48464FF40072FDF767
:103AC00099FF01230693069BAB4213D20BF1010C25
:103AD000384649465A460123CDF800C0FDF748FF55
:103AE00000287FF4C2AD069BDDF800C001330693C9
:103AF000E346E8E7019B5D46B8F1030F18BF1E4699
:103B00000BF1010C384649465A460123CDF800C056
:103B1000FDF72EFF00287FF4A8ADDDF800C0731973
:103B20006345E346ECD1B8F1030F3ED1522384F84C
:103B3000303084F83130612384F8323084F8173221
:103B4000029B4122013B84F8332084F81622C3F300
:103B5000072284F8183284F819221A0C1B0E84F8F4
:103B60001B32022384F81C325523722184F82E3232
:103B7000AA2384F8141284F8151284F81A2284F8FF
:103B80001D0284F81E0284F81F0284F82F32494671
:103B90000AF1010201233846FDF7EAFE384649469C
:103BA0000AF107020123FDF7E3FE002138460A4629
:103BB000FDF7ECFE003018BF01201BE00123069347
:103BC000C4E5B6F5007FBFF482AD83E505EB45059E
:103BD00001356D0803354FF0010805F2FF1520226D
:103BE0006D0A01924FF0010C8FE502356D004FF028
:103BF0000208F2E709B0BDE8F08F00BF39490100C3
:103C0000454901005949010000FFFF0010B50C4C67
:103C1000A268A4681346B4F1805F0CD2131F094A4E
:103C200053F8044F42F8044F074CA242F8D1044A1B
:103C30004FF080539360103043F8201010BD00BF48
:103C400000ED00E0FCFFFF0FC0000010431C10B5AA
:103C5000044604D106480749152201F0B7FE204664
:103C6000002100F0EDF904F01F040120A04010BD78
:103C7000E13601001A4A010038B505464B1C0C46D6
:103C800029600FD00846FFF7E1FF24F01F0404F17C
:103C90001803EB6004F11C032B6104F1140368604A
:103CA0006B61AC6038BD006800F0F2B938B50368EC
:103CB000044601330D4604D10A480B492C2201F079
:103CC00085FE15B1012D06D038BDA2686168136864
:103CD00023EA010303E0A268636811680B431360E1
:103CE00038BD00BFDC3601001A4A01002DE9F84357
:103CF000344CD4F80490D4F80880676AA66AB9F105
:103D0000000F24D0B9FA89F52F4BC5F11F05EDB28C
:103D100053F8250018B12D4B01211B68984701234A
:103D2000AB40E360C3EB0909E9E7B8FA88F5264B35
:103D3000C5F11F05EDB253F8250018B1234B022140
:103D40001B6898470123AB40E360C3EB0808B8F158
:103D5000000FEAD10AE0B7FA87F5C5F11F05EDB209
:103D60000F2D06D90123AB40E362FF1A002FF2D1D9
:103D700016E0154B05F1200253F822000028F1D07F
:103D8000124B01211B689847ECE7B6FA86F5C5F19E
:103D90001F05EDB20F2D06D90123AB40E362F61AE1
:103DA000002EF2D10BE0084B05F1200253F822005F
:103DB0000028F1D0054B02211B689847ECE7BDE8CD
:103DC000F88300BF80800240D4100010D010001093
:103DD00070B51E464B1C044623D0134B1A6021F0CD
:103DE0001F03124A036001F01F0321F05F0191429B
:103DF0004360154602D00E4801F04AFE236862680F
:103E0000AB420C4918BF203241F82260A260152055
:103E10000949FFF7FBFE094B4FF400121A6000201E
:103E200070BD084670BD00BFD010001000C0092052
:103E3000714A0100D4100010ED3C000000E100E0E8
:103E40008268024B002143F822107047D410001002
:103E500030B503682D4DAB4203D02D4CA34208D0A2
:103E60000FE044680123A3402A4C0129E36030D1CC
:103E70000EE044680123A340264C0129E36236D1B9
:103E800014E0012920D1AB4202D0A3420ED030BDB4
:103E9000012340681F491AB10A698340134303E0B4
:103EA0000A69834022EA03030B6130BD01234068A5
:103EB00018491AB10A6B8340134303E00A6B83402D
:103EC00022EA03030B6330BDAB4202D0A3421BD1F5
:103ED0000DE0012340680F491AB14A69834013433A
:103EE00003E04A69834022EA03034B6130BD0123AA
:103EF000406808491AB14A6B8340134303E04A6B98
:103F0000834022EA03034B6330BD00BF00C0092099
:103F100040C009208080024038B503680446013360
:103F20000D4604D105480649242201F04FFD63687F
:103F30000DB1E26800E02269136038BDDC36010093
:103F40009E4A010000B599B001F05AFD68461B4930
:103F500001F0E9FC06A81A4901F0E5FC0CA8194992
:103F600001F0E1FC12A8184901F0DDFC68460121CE
:103F7000FFF7D2FF06A80021FFF7CEFF0CA8002113
:103F8000FFF7CAFF12A80121FFF7C6FF962001F034
:103F9000A3FD68460021FFF7BFFF06A80121FFF738
:103FA000BBFF0CA80121FFF7B7FF12A80021FFF704
:103FB000B3FF962001F090FDD8E700BF32C0092082
:103FC00034C0092035C0092037C0092030B5054666
:103FD0000C46A1B001F014FD29466846224608F0BF
:103FE000D5FB051E03DC01F035FD21B030BD094BCA
:103FF0001B6823B908480949094A00F0C1FD00249B
:104000001DF804100448013400F01EFDAC42F7D145
:10401000E9E700BFA41200101C14001002C0092020
:1040200003C009200FB407B504A951F8040B01918E
:10403000FFF7CCFF03B05DF804EB04B0704700005D
:1040400038B5431C04460D4604D10F480F491522CC
:1040500001F0BCFC04F16040A0F51C2003099B00AA
:1040600003F1804303F5303300F00F02520018686B
:104070000321914020EA010119601868954045EA42
:104080000001196038BD00BFE13601000A4B010094
:1040900038B5431C05460C4604D11848184920225F
:1040A00001F094FC05F16040A0F51C2043099B0041
:1040B00003F1804303F530339D6EC4F3800200F0BA
:1040C0001F0102FA01F125EA01059D669D6E294353
:1040D000996692B903099B0003F1804303F53033DD
:1040E00000F00F025200186C0321914020EA0101F8
:1040F0001964196C94400C431C6438BDE13601000E
:104100000A4B010070B5044603685B6A9847236850
:1041100020461B69002101229847431C064623685C
:1041200004D120469B6A9847304670BD1B692046E3
:1041300000210222984723680546314600221B6968
:1041400020469847236820469B6A9847284670BDBA
:1041500008B5084B1B685BB907480849084A00F0D6
:104160000FFD05484FF41651BDE8084000F0EABACB
:1041700008BD00BFA41200101C14001002C00920CA
:1041800003C009207047000002284FF0000309DD3A
:104190000749C21E51F8220041F8223020B10368BD
:1041A0005B681847184670474FF0FF30704700BFF4
:1041B000A0110010022870B50C4615460FDC0E4BFE
:1041C0001B680BB9FFF7C4FF6619B44205D00B4852
:1041D00014F8011B00F038FCF7E7284670BD084BC7
:1041E000033853F8200020B1BDE8704003681B6815
:1041F00018474FF0FF3070BDA41200101C140010BF
:10420000A0110010022810B50C460ADC0B4B1B68ED
:104210000BB9FFF79DFF0A4800F0D2FB2070012088
:1042200010BD084B033853F8200020B1BDE8104002
:1042300003689B6818474FF0FF3010BDA4120010B0
:104240001C140010A0110010022807DD064B0338D3
:1042500053F8200020B10368DB681847012070473D
:104260004FF0FF30704700BFA0110010022807DD9B
:10427000064B033853F8200020B103681B69184728
:10428000002070474FF0FF30704700BFA0110010B2
:10429000022808B504D84FF400534B60002008BD35
:1042A00001F04CFD092303604FF0FF3008BD08B555
:1042B000012001F049FD704708B5FFF763FFFFF7E4
:1042C000FAFF08BD704708B5FFF7FCFFBDE80840DE
:1042D000FCF7AEBC0C4A10B513681844EFF3088124
:1042E000884205D3094B0C221A604FF0FF3010BDF5
:1042F0000749096821B1074C246821448842F1D25A
:104300001060184610BD00BF2001001024140010DA
:104310009C110010A0120010094C08B52368054636
:10432000986801F025FE2368D86801F021FE01F0AD
:10433000BAFB08B101F00CFC0DB1FFF703FEFEE77C
:104340006005001001207047002103F0BBB97047E1
:1043500070477047704708B5FFF7F9FF08BD08B50B
:10436000FFF7F6FF08BD08B5FFF7F3FF08BD08B576
:10437000FFF7F0FF08BD000010B502F083FC044613
:1043800010B9024801F084FB204610BD1D4C01000D
:1043900008B102F07FBC7047034653F8042B10B5F8
:1043A000044602B9036022689A4204D003480449D3
:1043B000592201F00BFB206810BD00BF594C0100D1
:1043C0006D4C01000B4B10B5036004460A48FFF723
:1043D000E3FF0023094A52F82310A14204BF002141
:1043E00042F823100133402BF4D10348FFF7D4FFE8
:1043F000204610BDD04C010094110010A0110010F7
:104400002DE9F34188463649054603F095FA0446FE
:1044100010B9FFF79DFE5EE02846324903F08CFAA2
:1044200018B9FFF795FE012455E028462E4903F000
:1044300083FA18B9FFF78CFE02244CE02B48FFF7F3
:10444000ABFF00242A4E56F82430374633B10134EE
:10445000402CF7D12548FFF79FFF3AE04FF0FF339C
:10446000224846F82430FFF797FF2B783A2B06D1E5
:10447000284620496A4603F0CFF9009824E06846B0
:10448000294600F0F1FE684600F030FF10B946F80A
:1044900024001EE0684600F017FF18B1684600F0DF
:1044A0001CFF11E0684600F008FF054610B946F809
:1044B00024000EE0036868469E6800F0F3FE28F4CE
:1044C000803201462846B04747F8240008B103343B
:1044D00001E04FF0FF34204602B0BDE8F08100BF9C
:1044E0005F4B0100BE4C0100664B010094110010AF
:1044F000A0110010BA4C0100074AD2F8C43043F4AE
:104500000073C2F8C430054B00221A721A7A42F0C6
:1045100001021A72704700BF00C00F400040024005
:10452000024B187A00F00100704700BF00400240C3
:1045300000B50E4B8BB093F8202001A8019293F8A0
:104540002420029293F82820039293F82C200492BE
:1045500093F838209B8F013A9BB2A3F26C730592BB
:10456000069302F015FE0BB05DF804FB004002401C
:1045700007B502AB43F8040D184602F0DFF9114B02
:104580001A7A42F002021A72027883F82020027925
:1045900083F82420027A83F82820027B83F82C20D9
:1045A00002690132D2B283F83820426902F26C7299
:1045B00092B29A871A7A02F0FD021A7203B05DF87D
:1045C00004FB00BF00400240012810B502D00228C1
:1045D00011D010BD034638225143114842184058AB
:1045E000E8B113B992F83620CAB1BDE810400D4ABF
:1045F0001946126810470A48382303FB010358681C
:10460000013005D018699C68046093F836300BB10E
:104610000023E0E7506820F001005060DBE710BDA8
:10462000AC120010A8120010034A00219068C0F3D9
:104630004200FFF7C9BF00BF00C00040034A01218C
:104640009068C0F34200FFF7BFBF00BF0000014009
:10465000034A02219068C0F34200FFF7B5BF00BFD4
:1046600000800940034A03219068C0F34200FFF72D
:10467000ABBF00BF00C0094070B52A4B04689C4224
:1046800011D006DCA3F580439C4212D1264D0523B0
:1046900011E0264B9C4209D003F580439C4208D18F
:1046A000234D082307E0234D062304E0224D072372
:1046B00001E000252B4672B16268012606FA01F17D
:1046C0000A4362605CB220462946FFF79FFA1B4B03
:1046D000A6401E6070BD01290AD04568184A3826D8
:1046E00006FB052292F8365030325279D54217D166
:1046F000012202FA01F6B1FA81F16568490925EA59
:1047000006056560006802FA01F14068014207D1C0
:104710009A400A4BC3F88020BFF34F8FBFF36F8FCF
:1047200070BD00BF00000140294600000080094024
:10473000654600003D4600005146000000E100E0F3
:10474000AC1200102DE9F04F0268734B8DB09A4205
:1047500006460F4604DD714871499B2201F036F987
:104760003368704A934223D00FDCA2F58042934213
:1047700039D16D4BD3F8A82122F0C002C3F8A8218B
:10478000D3F8A82142F040021DE0684A93421DD0B0
:1047900002F58042934226D1634BD3F8AC2122F438
:1047A0004022C3F8AC21D3F8AC2142F4802218E0B7
:1047B0005D4BD3F8A82122F44072C3F8A821D3F8A6
:1047C000A82142F48072C3F8A8210CE0564BD3F81C
:1047D000AC2122F44032C3F8AC21D3F8AC2142F42E
:1047E0008032C3F8AC21524B3D01D3F800B0BBFB83
:1047F000F5F305FB13B51FFA83F9002D53D04FEAEB
:104800004B0305934FF0010A4FEA8B030693039382
:104810005346059A0197CDF808B0049700250199F1
:104820005FFA8AFC4FF00008002A5FFA88F00790D0
:10483000ABBF0398B2FBF1F4B0FBF1F42409A8BFBD
:1048400064090134C4F34F04002C49D0B8F1000FBF
:1048500002D0012C98BF022408EB0A0060430893A1
:10486000029BC000B3FBF0F00130C7EB5000CDF865
:104870002CC00A91099201F057FA049B099A9842B8
:104880000A99089BDDF82CC005DAB8422ED06346A1
:10489000A146079D049008F101085FFA88F0604581
:1048A0003944C1D326E00123316845EA03150A7B68
:1048B000EDB242F080020A733268C9F30721117128
:1048C00032685FFA89F982F80090326882F82850DD
:1048D0003268137B03F07F0313730DB0BDE8F08FD4
:1048E000B8F1000F14BF02240124B5E76346079D09
:1048F000A146D9E7BAF10F0FD6D0029906985944CC
:10490000029105990AF1010A0A44039901440391AD
:1049100001993944019182E700C009408C4D0100A2
:10492000A54D01000000014000C00F40008009407B
:1049300024010010F8B55E1E012E07460C461546F0
:1049400004D914481449FB2201F040F8053C032C1B
:1049500004D912481049FC2201F038F8042D04D97A
:104960000F480D49FE2201F031F8013DEDB2032D53
:1049700087BF002211460B4B012198BF5A5744EACA
:10498000860343EAC104386844EA0214E4B20473BB
:10499000F8BD00BFFE4D0100A54D0100234E0100F2
:1049A000464E01006C4F0100034B196041683823EB
:1049B0004B430249CA507047A8120010AC120010B5
:1049C000024610B501680B7DDB07FCD50B785268F9
:1049D000D8B2084B382404FB02335A6801321FBF97
:1049E0005A699B6813604B681CBF43F001034B601E
:1049F00010BD00BFAC1200104268124B382101FB01
:104A00000233D96903F11802013109D01B6B19680F
:104A10009368194214D10368187DC0F38010704761
:104A200002683033127D12F0200F03D000221A7179
:104A30000120704718790F288CBF00200120704793
:104A400000207047AC12001038B504460D462046D1
:104A5000FFF7D2FF0028FAD02368EDB21D7062681C
:104A6000044B382101FB023393F83420013283F8E0
:104A7000342038BDAC1200102DE9F84F9A463C4C5A
:104A800003680546A34218BF00248846914647683C
:104A90001CB1237C03F03F032374364E382202FB03
:104AA00007634FF0FF31D96159606B68002102FB49
:104AB0000363284683F835100A46FFF7DDFDB8F199
:104AC000000F52D02C49484600F05EFF2B49834628
:104AD000504600F059FFA8F10203012B17D8BAF194
:104AE000FF3F3FD0224B984209D144B1237C50462E
:104AF00043F080032374214900F018FF32E038208E
:104B000000FB076051461C3000F0F3FE2AE0B8F1CC
:104B1000010F2AD1B9F1FF3F27D02B6807221A7263
:104B2000134B9B450AD14CB1237C484643F04003CC
:104B300023741149BDE8F84F00F0F8BE382404FB97
:104B4000076049460430002200F0D6FE6B6801225F
:104B500004FB036686F835202846BDE8F84F00219F
:104B6000FFF78ABDB8F1030FD3E7BDE8F88F00BFA8
:104B700000000140AC120010FC4C0100484F010045
:104B80002DE9F84305460F4608464D49164600F004
:104B900007FF4C490446304600F002FF014620461C
:104BA00000F0E0FE411C044604D1474847495C221E
:104BB00000F00CFF464B2C609C4217D009D8A3F59F
:104BC00080439C421FD1434AD2F8C43043F00803CB
:104BD00017E0414B9C420FD003F580439C4212D119
:104BE0003C4AD2F8C43043F000730AE0394AD2F8A4
:104BF000C43043F0100304E0364AD2F8C43043F026
:104C00008073C2F8C4304FF0010984F808902B6813
:104C10004FF00008C3F8048028464FF41651FFF700
:104C200091FD42464B4628460821FFF783FE384651
:104C3000234900F07BFE3046224900F077FE7A1CC3
:104C400003D038464146FFF723FA731C03D03046A1
:104C50000021FFF71DFA1E4B9C420FD005D8A3F58B
:104C600080439C420ED100230BE01B4B9C4207D09B
:104C700003F580439C4205D1032302E0012300E0B9
:104C800002236B606A68154B382101FB02334FF039
:104C9000FF325A60DA61284613460021FFF7ECFE26
:104CA0000F4B9C4209D10F4B01221A602946BDE8E7
:104CB000F8430D48082202F03FB8BDE8F88300BF72
:104CC000DC4E0100204D0100CA4E0100A54D01003F
:104CD0000000014000C00F4000800940AC120010ED
:104CE00000C00040A41200101C1400102DE9F74F62
:104CF00080460F4608462E4916461D460C9C00F07D
:104D00004FFE2C490190304600F04AFE2A49814668
:104D1000284600F045FE29498346204600F040FE23
:104D2000019B49468246184600F01CFE51468146CA
:104D3000584600F017FE0146484600F013FEC8F83A
:104D40000000013004D11E481E49442200F03EFEFE
:104D5000D8F800301C4A93420AD002F5B0229342A0
:104D60000DD102F5E822D2F8C43043F4001304E078
:104D7000164AD2F8C43043F48063C2F8C4303846CF
:104D80000B4900F0D3FD30460A4900F0CFFD28461C
:104D9000094900F0CBFD631C06D02046074903B04B
:104DA000BDE8F04F00F0C2BD03B0BDE8F08F00BF1A
:104DB000B4500100704F0100AC4F0100F0500100F1
:104DC000E84F0100FC4F01000000034000C00F400D
:104DD000F8B5174602681E465368054623F00203DD
:104DE00053600B1F0C2B0C4601D8032F04D911481C
:104DF0001149592200F0EAFD2D68013C286807F0AE
:104E0000010144EAC111000CC7F34004000441EA67
:104E1000841404432C606B68002E23F00D0214BF31
:104E20000423002313436B606B6843F002036B6041
:104E3000F8BD00BF52500100FC4F010003682DE98E
:104E4000F0415A68064622F002025A602C4A0D468A
:104E5000934211D002F5B02293421AD1294BD3F8D4
:104E6000AC2122F44062C3F8AC21D3F8AC2142F467
:104E70008062C3F8AC210CE0224BD3F8A82122F4C5
:104E80004012C3F8A821D3F8A82142F48012C3F835
:104E9000A8211D4B02241F68B7FBF4F00DF080F928
:104EA000804628460DF07CF9014640460DF080FA18
:104EB0004FF07C510DF0C0F80CF032FD00F0A8FE70
:104EC0000DF01CF8FF2812DC336801381C611A68E9
:104ED00022F47F0222F47F421A601A6842EA00201C
:104EE00018605A6842F002025A60BDE8F08102344C
:104EF000B4F5807FD0D10548BDE8F04100F0C8BDD1
:104F00000000034000C00F40240100108C5001003D
:104F10000368DA689007FCD59960DA685207FCD517
:104F2000986870470649074A074B9A42BEBF51F836
:104F3000040B42F8040BF8E7044880470448004794
:104F4000285A0100C8000010380A0010694F0000FC
:104F500071010000FEE7FEE7FEE7FEE7FEE7FEE781
:104F6000FEE7FEE7FEE7FEE7264B2022C3F8A0217E
:104F7000D3F8A021900603D5D3F8A0215106FBD584
:104F80000222C3F804210022C3F8A8210120C3F89B
:104F9000AC210B22C3F80C01AA21C3F884205522AE
:104FA000C3F88C10C3F88C20C3F88000C3F88C10B1
:104FB000C3F88C20134BD3F888205201FAD5032272
:104FC000C3F88020AA22C3F88C205522C3F88C2075
:104FD000D3F888100B4A11F0407FF9D00523C2F8AE
:104FE0000831094BC2F8C4300023C2F8C831136835
:104FF00023F4704323F03A0343F4405343F03A035D
:105000001360704700C00F40DE87280408B5114BBD
:105010001868E8B9104A01211960D2F8C43043F485
:105020000003C2F8C430A2F5D0220C4B10671B68F5
:10503000022050600A489B08B3FBF0F3013BD360A9
:10504000042051600749FEF7E1FD074B10221A606A
:1050500008BD00BF8C13001000C00F4024010010D9
:1050600040420F00C159000000E100E008B5044BC8
:105070001B680BB9FFF7CAFF024B986808BD00BF59
:105080008C13001000400940034B98615A6942F0AC
:1050900001025A61704700BF00400940024A53694B
:1050A00023F001035361704700400940014B012286
:1050B0001A607047004009407047704770B5044659
:1050C0000546064B00F14006036055F8040F08B191
:1050D000FFF75EF9B542F8D1204670BD38510100A6
:1050E00010B50446FFF7EAFF2046FFF751F92046C6
:1050F00010BD00002DE9F0410546A84690B08DE8AE
:105100000E00169B20480393179B00240493189BC2
:1051100028600593199B6C6406931A9B07931B9B4D
:1051200008931C9B09931D9B0A931E9B0B931F9B2B
:105130000C93209B0D93219B0E93229B0F935DF864
:1051400024707B1C0CD01820FFF716F906460021AE
:10515000182201F0CBFE3046394600F0CAFB00E0D1
:10516000002601371FBF01236A6CA340134304F1DB
:10517000010448F8046F18BF6B64102CDFD1284677
:1051800010B0BDE8F08100BF385101008068704761
:10519000007B704738B504460D460A4B0360002378
:1051A0004360A16002730848FFF7F6F825B1074B8A
:1051B0001A681C60626000E065600348FFF7ECF865
:1051C000204638BD50510100941300109013001078
:1051D00010B504460C4B03600C48FFF7DDF8A368DC
:1051E0006BB10B4A1368A34202D16368136006E0F7
:1051F0005A68A24201D01346FAE762685A6003482F
:10520000FFF7CAF8204610BD50510100941300105A
:105210009013001010B50446FFF7DAFF2046FFF7A1
:10522000B7F8204610BD000070B506460C480D4684
:10523000FFF7B2F80B4B1C686CB1A06848B131465F
:105240002A4602F0E3FC20B9A06802F0B1FCA842B3
:1052500001D06468F0E70248FFF79EF8204670BD71
:10526000941300109013001010B5002303604360E6
:105270000A7804462F2A13D14A788AB1481C194665
:10528000206023681A782F2A02D10133236004E0BA
:105290001AB1013301312360F3E7FFF7C5FF606006
:1052A000204610BD00687047406808B520B1FFF780
:1052B0006FFF431E5842584108BD10B50446FFF722
:1052C000F3FF00B1606810BD406808B520B1FFF77A
:1052D0005FFFB0FA80F0400908BD10B50446FFF743
:1052E000F3FF10B1606800B1043810BD40680030B1
:1052F00018BF012070474FF0FF3070474FF0FF306C
:105300007047002070474FF0FF30704710B50446DB
:105310000122FFF73FFF024B2046236010BD00BF74
:105320006051010010B50446024B0360FFF750FFC7
:10533000204610BD6051010070470000036810B5A1
:105340000133044604D1064806492C2200F03EFBF6
:1053500063691A6863681A4214BF0120002010BDF7
:10536000DC3601009E4A01000430FFF7E7BF000071
:1053700010B50446074B40F81C3BFEF761FD04F1F5
:105380003800FBF7BAFB04F12800FBF7B6FB204618
:1053900010BD00BF8851010010B50446FFF7E8FFBB
:1053A0002046FEF7F5FF204610BD000038B5044644
:1053B0000D46FBF7A2FB2CB10DB9E56038BD024BE1
:1053C0002560E36038BD00BFC8360100F8B505466A
:1053D00004460E46124B182245F8043B114F28464E
:1053E000002101F083FD0023E361236263626363B4
:1053F000636404F128003946FFF7D8FF04F1380050
:105400003946FFF7D3FF3146074A234604F11C0013
:10541000FEF7DEFC2846314600F06BFA2046F8BD68
:105420008851010039530000FD5400002DE9F0417E
:105430000D46064600F0E4FAEF6806F1280406F18E
:105440001C08204677B1FBF758FB3CB1EB681BB159
:105450005B68204629469847EB6873630121404604
:105460000A4605E00549FFF7A1FF40463A460121FB
:10547000FEF7EEFCBDE8F04100F0ECBA3953000055
:105480002DE9F0410D46064600F0BAFAEF6806F144
:10549000380406F11C08204677B1FBF72EFB3CB11F
:1054A000EB681BB15B68204629469847EB6873643C
:1054B00040460221012205E00549FFF777FF4046FB
:1054C0003A460221FEF7C4FCBDE8F04100F0C2BA42
:1054D00039530000C36810B504462BB90548064986
:1054E00040F2E71200F072FAE3682046BDE810408F
:1054F0001B6818479051010095510100012908B51A
:1055000002D0022902D008BD283000E03830FFF771
:10551000E1FF08BD704710B50446FEF739FF20468D
:1055200010BD000070B5044603680C4D5B689847D9
:105530002B68A3420BD0261D3046A168E2680023E9
:10554000FFF746FC30462169FFF778FC2C602368A2
:105550002046BDE870409B68184700BF9C130010B0
:1055600037B5044609480825206000206060E060E7
:105570000748A560206106980090201DFFF7B6FB44
:105580002046FFF7CFFF204603B030BDE8510100B1
:1055900040420F0070B504460D4603685B689847AB
:1055A000064B2046256100221A60FFF7BBFF2368E7
:1055B0002046BDE870409B68184700BF9C13001050
:1055C00038B504460D4603685B6898472046FFF7E8
:1055D000A9FF2946201DFFF79BFC054623682046AE
:1055E0009B689847284638BD08B50248FEF7D4FEA8
:1055F00008BD00BFA013001008B50248FEF7CCFE9E
:1056000008BD00BFA01300107047A0F13000FFF7E5
:10561000FBBF7047A0F13000FFF7FBBF00F051B8AF
:10562000A0F13000FFF7FABF00F04EB8A0F1300053
:10563000FFF7FABF38B504461D46049B00F04CF84E
:1056400004F13000294600F0BDF8054B204603F177
:105650000802226003F1280264332263636338BDC9
:1056600000520100704770477047000070B5090193
:105670004418A36945180C352BB90648064940F271
:10568000E71200F0A3F9A3692846BDE870401B6843
:10569000184700BF905101009551010070B50546B3
:1056A0000E46044655F8043B1B6898472846314689
:1056B000FFF748F82368E6622046BDE870405B6863
:1056C00018470430FFF77CB910B50C460430FFF7DB
:1056D000BBF9204610BD0000F8B51646174A00F188
:1056E0000C05026000220446426082608261826290
:1056F000C36228460F46FBF700FA1DB1104BE3606A
:10570000104BA36104F11C052846FBF7F6F91DB107
:105710000B4BE3610B4BA362251D324628463946ED
:10572000FFF72EFA2846E16AFFF70CF828460649EB
:105730002246FFF739F92046F8BD00BF7852010034
:1057400065560000C83601006D5600000020704705
:10575000F8B50E46036804465B6A8F1835469847CD
:10576000BD4208D023682046DB6A15F8011B984724
:105770000130F5D12F46236820469B6A9847B81B15
:10578000F8BDF8B50E46036804465B6A8F183546C7
:105790009847BD4208D0236820461B6B9847431C9E
:1057A00002D005F8010BF4E7236820469B6A98476E
:1057B000A81BF8BD002070470020704700207047EC
:1057C000002070471FB5044600F0D6F90B4B01A826
:1057D00003F10802443363600023636122600849D7
:1057E000224601F0F3FF074901A800F011FD6061B6
:1057F000FEF7AAFD204604B010BD00BF885201008C
:10580000BA4C0100D452010010B50446064B03F116
:105810000802443302604360406900F0E7FA204622
:1058200000F0BEF9204610BD885201000EB477B5D5
:105830000446036807AD55F8046B5B6A98476069D6
:10584000019500F095FB3146019A606906F028F851
:105850000546236820469B6A9847284603B0BDE862
:10586000704003B070470EB477B50446036807ADC7
:1058700055F8046B5B6A98476069019500F078FB06
:105880003146019A606906F04FFF054623682046BD
:105890009B6A9847284603B0BDE8704003B0704744
:1058A00038B50368044601330D4604D1054806495E
:1058B000242200F08BF863680DB1E26800E02269F1
:1058C000136038BDDC3601009E4A010070B50E46FB
:1058D00004461546FEF7D0F9013609D020460021CE
:1058E000FEF7E4F920462946BDE87040FEF7DBB933
:1058F00070BD0322FFF7EABF70B50E460446154699
:10590000FEF7BAF901360DD020462946FFF7C8FF49
:1059100020460121FEF7CAF92046BDE87040022169
:10592000FEF7C1B970BD0022FFF7E6BF10B504460F
:10593000013001D110BD0C310B685A1C0BD0A342B1
:10594000F9D120468968FEF77BFB2046BDE8104070
:105950000221FEF79DBB0248BDE8104000F098B858
:10596000D7520100884208B50AD0431C07D0013144
:1059700006D0044800F08CF84FF0FF3008BD084610
:1059800008BD00BFE85201000B685A1C05D08342D5
:1059900001D1486870470C31F6E71846704700009F
:1059A000421C10B5044607D0FFF7EEFF431C044627
:1059B00002D1024800F06CF8204610BDF9520100F7
:1059C000014800F0FFB800BF4C53010070B5064617
:1059D0000D46144600F014F831462A462346034883
:1059E000FEF720FBBDE87040FEF7ACBA545301004F
:1059F000EFF3108000F0010080F00100704700001C
:105A000038B5FFF7F5FF80F00100C5B272B60C4C57
:105A100023680BB90B4B1D702368013304D10A486E
:105A20000A493522FFF7D2FF23682BB125B9084870
:105A300006493922FFF7CAFF23680133236038BDC6
:105A4000B0130010B413001085530100AB530100D4
:105A5000EE53010010B50A4C236883B1FFF7C8FF6D
:105A600020B1084808494A22FFF7B0FF2368013BEC
:105A7000236023681BB9054B1B7803B962B610BDC0
:105A8000B0130010EE530100AB530100B41300102B
:105A90000FB407B504A951F8040B0191FEF796FA6B
:105AA000012000F051F900F05FB838B50446FFF767
:105AB000DDFA0546FFF7DAFA401BA042FAD338BDFB
:105AC00008B504490CF0C0FB0CF00EFDBDE8084021
:105AD000FFF7EBBF002474494FF47A735843FFF784
